:020000040000FA
:030000000200D328
:0300330002110EA9
:03004B00020DA300
:03006B0002104E32
:03007B000210A7C9
:10008300020D6B00000080FB1200E2B900030200C6
:10009300CDE490010178B579028002F0A3D8FCD9B0
:1000A300FA9002B5AA82AB839000E5783479048094
:1000B30015E493A3AC82AD838A828B83F0A3AA82D7
:1000C300AB838C828D83D8E9D9E7121C8912008611
:1000D30075D0007581BF75100175110102008B7910
:1000E30001222D3364426D003064426D003464425A
:1000F3006D003131202D2032343035204D487A00C7
:100103003132202D2032343130204D487A003133C2
:10011300202D2032343135204D487A003134202DC2
:100123002032343230204D487A003135202D2032B0
:10013300343235204D487A003136202D2032343385
:1001430030204D487A003137202D2032343335208A
:100153004D487A003138202D2032343430204D4838
:100163007A003139202D2032343435204D487A003D
:100173003230202D2032343530204D487A00323150
:10018300202D2032343535204D487A003232202D4F
:100193002032343630204D487A003233202D20323D
:1001A300343635204D487A003234202D203234370E
:1001B30030204D487A003235202D20323437352017
:1001C3004D487A003236202D2032343830204D48C5
:1001D3007A005472616E736D69747465720052654E
:1001E300636569766572003130303020506B74730B
:1001F30000313030303020506B7473003130303088
:10020300303020506B747300313030303030302058
:10021300506B7473003130302F7365636F6E6400FD
:1002230035302F7365636F6E640032302F736563EF
:100233006F6E640031302F7365636F6E6400323408
:10024300323000323433300032343331003235321D
:10025300300032353330003235333100323531300E
:10026300003235313100313131300031313131003B
:100273002D2D2D2D002020204343787878782028B9
:1002830020290020202000000000000000000000C2
:10029300000000000000000000000000000000005B
:1002A300002020205449204C5057005045522054E0
:1002B3006573746572005265636569766572005291
:1002C30065616479005045523A2000202F31303067
:1002D3003000525353493A200064426D0052656323
:1002E3007627643A20004A6F79737469636B2050F0
:1002F3007573680073746172742F73746F70005434
:1003030072616E736D69747465720053656E743ACD
:1003130020005045522054657374004368616E6E2B
:10032300656C3A20004F7065726174696E67204D89
:100333006F64653A20005061636B65742072617469
:10034300653A200042757273742053697A653A20C6
:10035300005458204F757470757420506F77657210
:100363003A2000FF0000000000000000000000B57C
:100373000200BB0201C0020242050303070E0E1C6A
:10038300191B1B1B1B191C0E0E0703181E07031832
:100393001C060000061C1803071E18C5020BD30217
:1003A3000CE1020DEF020EFD020F0B0310190311F6
:1003B3002703123503134303145103155F03166D0B
:1003C30003177B031889031997031A6E0510A503F6
:1003D30000B10301A10502BA0300C40301CF030264
:1003E300DB0303E803000010270000A086010040A0
:1003F300420F00AA0504E80364F30332FD03140764
:10040300040AC90504000000000A000000010000FE
:1004130000E8030000E066701008A3E066700A08B5
:10042300A3E066700408A3E06622C3E09608A3E095
:100433009608A3E09608A3E096A2D265D03322C320
:10044300E7960809E7960809E7960809E79622C39D
:10045300E09608A3E09608A3E09608A3E096220896
:100463000808EAC0E0EBC0E086F0E7A4FA180986C2
:10047300F0E7A42AFA180986F0E7A42AFA180986ED
:10048300F0E7A42AFA1986F0E7A4FBE5F02AFA19A3
:100493000886F0E7A42BFBE5F03AFA190886F0E7A3
:1004A300A42BFBE5F03AFA18180986F0E7A4C5F087
:1004B3002BFBE43AFA1908E7C5F0C6A426F6E5F0E3
:1004C3003BFBE43AFA1886F0E7A4F6E5F00826F6D3
:1004D300E43B08F6E43A08F6D0E0FBD0E0FA22E485
:1004E300CFC0E0E4CEC0E0E4CDC0E0E4CCC0E07532
:1004F300F020C3E633F608E633F608E633F608E6FB
:1005030033F6181818EC33FCED33FDEE33FEEF33FE
:10051300FFC3EC9709ED9709EE9709EF971919199E
:10052300400FFFEC97FC09ED97FD09EE97FE1919B3
:1005330006D5F0BEECF709EDF709EEF709EFF71969
:100543001919D0E0FCD0E0FDD0E0FED0E0FF22128C
:1005530005BA1818181204E21205A919191922125A
:1005630005A9191919080808E618181820E7E01250
:1005730004E21205BA18181822090909E71919190A
:1005830020E7DC080808E618181820E7030204E24D
:100593001205BA1818181204E21205BA181818121C
:1005A30005A919191922E4C397F709E497F709E490
:1005B30097F709E497F722E4C396F608E496F6085A
:1005C300E496F608E496F622E026F608A3E036F66B
:1005D30008A3E036F608A3E036F622E026F008A3E7
:1005E300E036F008A3E036F008A3E036F022C3E0DB
:1005F300C696F608A3E0C696F608A3E0C696F608E4
:10060300A3E0C696F622E0F608A3E0F608A3E0F618
:1006130008A3E0F622E6F008A3E6F008A3E6F00854
:10062300A3E6F022CAC0E0E6F0A308DAFAD0E0FAC3
:1006330022CAC0E0E0A3C582CCC582C583CDC583F1
:10064300F0A3C582CCC582C583CDC583DAE6D0E0ED
:10065300CA22C3E498F8E499F91206968026C3E403
:100663009AFAE49BFBE920E7E9120696E498F8E49A
:1006730099F922C3E498F8E499F9120696E498F8F4
:10068300E499F9C3E49AFAE49BFB22EB20E7CFE970
:1006930020E7E0B90010BB0008E88AF084F8AAF06C
:1006A30022E4FBC8FA22EB70227B10C833C8C9339B
:1006B300C9335007C39AC3DBF280069A50012ADB81
:1006C300EAC833F4C8C933F4C9FA2275F008E4C898
:1006D30033C8C933C933C99AC99B5004C92AC93B12
:1006E300D5F0ECFBC833F4C8E4C9FA2270042260E5
:1006F3000D18C6C333C608C633C6D5E0F418222581
:100703001010AF08F510400215118008F5104002D3
:100713001511D2AF22C0D0251010AF08F51050022A
:1007230005118008F51050020511D2AFD0D0222553
:1007330010F58210AF08F510400215118008F5106E
:1007430040021511D2AF851183222510F582E435BD
:1007530011F58322E4732510C582C0E0E51134FF4F
:10076300C583C0E0E510C3958224F9F8E4C5A885E4
:100773008311858210C5A8E8CEF0A3E520F0A37805
:1007830008E608F0A3DEFAEFF0A3E58124FBF8E620
:1007930008F0A3E608F0A30808E608F0A3E608F0CB
:1007A300A315811581D0E0FED0E0F815811581E80D
:1007B300C0E0EEC0E022851183851082E0A3FEE055
:1007C300A3F5207808E0A3F608DFFAE0A3FFE0A38F
:1007D300C0E0E0A3C0E0E0A3C0E0E0A3C0E0E4C564
:1007E300A8858210858311C5A8D083D08222C0D06A
:1007F3002510C582C0E0E51134FFC583C0E0E510D4
:10080300C3958224F310AF08858311858210800875
:10081300858311858210D2AFC8F0A3E9F0A3EAF073
:10082300A3EBF0A37908E709F0A3D8FAECF0A3ED62
:10083300F0A3EEF0A3EFF0A3D0E0F0A3D0E0F0A399
:10084300D0E0F0A3E520F0A3E5F0F0A32285118327
:10085300851082E0C0E0A3E0F9A3E0FAA3E0FBA3E4
:100863007808E0F608A3DFFAE0FCA3E0FDA3E0FECE
:10087300A3E0FFA3E0C0E0A3E0C0E0A3E0F5D0A3C2
:10088300E0F520A3E0A3F5F0E4C5A88583118582F4
:1008930010C5A8D082D083D0E0F8D0E032740480B1
:1008A3000474028000C0E0F404120732D0E01206A0
:1008B300272274048000CCC0E0EDC0E0E510C39CA7
:1008C300CCAD1150011D10AF068C108D1180068C1C
:1008D300108D11D2AF120634D0E0FDD0E0FC22D04F
:1008E30083D082C5F0E493A3C5F0C395F0F5F0E49B
:1008F30093A3C395F04005E5F0048001E475F0028D
:10090300A42582F582E5F03583F583E493A3C0E063
:10091300E493C0E022D083D082CCC0E0E493A36010
:10092300061209421470FAE493A3600612096114D3
:1009330070FAD0E0FCE493A3C0E0E493C0E022C0EB
:10094300E0E493A3D39C5010E493A3C39C400AD048
:10095300E0D0E0D0E0020935A3A3A3D0E022C0E0B9
:10096300E493A36C7009D0E0D0E0D0E0020935A392
:10097300A3D0E022C082C083120D49D2AF79017A9D
:10098300BD7B01120D309001BDE0C2E7F06405703C
:10099300377905120A515004D2F08002C2F0A2F056
:1009A300E492E090053EF09001C2E0A2E74003022A
:1009B3000A499001C0E0FA900141E06A6003020A2B
:1009C300497401900142807DE024F590053BF0904D
:1009D30001BDE0F9120A515004D2F08002C2F0A224
:1009E300F0E492E090053EF09001C5120BFC9005F7
:1009F30037E8F0A3E9F090053C74C7F0A37401F065
:100A030090053BE0F83395E0F9E824C7F8E93401B1
:100A1300F988828983E090053F1216BBA3E0A2E721
:100A2300501C900536E0FA9001C0E06A6010900116
:100A3300BEE054DF644170067401900540F09001FC
:100A4300C0E0900536F0C2AF120D5A02103F7ABED5
:100A53007B01120D309001BEE0A2E52274F512076E
:100A6300598A828B83120D06E9640170047901802F
:100A730073C2AFA882A983900148E8F0A3E9F0907C
:100A8300053CE4F0A3F07401900143F09005D8789D
:100A930008120609900144780812061875F0051229
:100AA30010FEA3A3A3A3E0A424D490618F1210FD8E
:100AB300120BFCE8906174F0E9906175120BF8E891
:100AC300906172F0E9906173F0A2AFE492E0FAC230
:100AD300AF90023D7477F0A37409F0EAA2E092AFFD
:100AE300D2AF790002146D74F6120759EAFEEBFFD8
:100AF3008C088D09890A900143E0700675E1EC7555
:100B0300E1E3E9C394674003750A67906193E05496
:100B13002270F8120D49740B250A90014AF0120B4A
:100B2300F06004786180027841E890014BF07488AA
:100B330090014CF0900141E090014D120BF89001AF
:100B43004EE8F0A3E9F0900150EEF0A3EF1210FD90
:100B5300120BFC900152E8F0A3E9F07A0080208A9E
:100B630082A882E50828F582E5093400F583E0C010
:100B7300E0E82454F582E43401F583D0E0F00AEA96
:100B8300C3950A40DA740A250AFB75E1EE7591FDF7
:100B93007A0080118A08E508244AF582E43401F5D5
:100BA30083E0F5D90AEAC39B40EA120D5A75E1E9DD
:100BB300E591A2E150FA7591FD120BF0600FE490FC
:100BC3000142F07A4A7B02120CA8E06004790080AB
:100BD300027901900143E0700675E1EF75E1ECE9FC
:100BE3007006900141E004F07F030207B9120C0282
:100BF300A3A3A3E022F0120C02E0F8A3E0F92290F1
:100C03000148121105A3A322C008C0097508017584
:100C13000900EB78081206EFE50845F2F5F2C28DFC
:100C2300EA494BF5B6A28D50FCE5BBFDE5BAFC7570
:100C33000801750900EB78081206EFE508F455F290
:100C4300F5F2ECFAEDFBD009D00822748055C6FA10
:100C530053BEFBE59DA2E550FAE59DA2E240F400F8
:100C6300740169700774494AF5C68005E970028A00
:100C7300C6E5C6FAE59EFBEA6B70F943BE0422E5BE
:100C83009EA2E64003790122E9700553C67F8008DE
:100C9300740169700343C680E5C6FAE59EFBEA6BFF
:100CA30070F9790022EBC313FBEA13FAEAF8EBF9C4
:100CB30074FF28FA74FF39FB7400687003740069C9
:100CC30060130000000000000000000000000000AE
:100CD30000000080D72274F8120759EAFEEBFFEEFA
:100CE300F8EFF974FF28FE74FF39FF74006870038E
:100CF30074006960097AE87B03120CA880E17F0124
:100D03000207B9C082C083906189E04460F074D562
:100D1300906190F074099061FAF074159061B2F0EB
:100D2300E49061AEF0120D5A790002103FC082C008
:100D330083800DE5D98A828B83F0A3AA82AB8319C2
:100D4300E970F002103FC082C0839061A3E0C2E665
:100D5300F0539AFE02103FC082C0839061A3E0D299
:100D6300E6F0439A0102103FC0E074F21207F1A2C9
:100D7300AFE492E0FEC2AFE5E9A2E6501990023D6E
:100D8300E07002A3E0600990023D121101120757BF
:100D9300759B0053E9BFEEA2E092AF7F01020850BA
:100DA300C0E074F21207F190023FE07002A3E0602A
:100DB3000990023F12110112075780DFC292C280CD
:100DC300C2F989F9A2F950FC00000000D29222C2B4
:100DD30092D280C2F989F9A2F950FC80EB74F8121F
:100DE3000759C292D2808012C2F98A828B83E0F5BE
:100DF300F9A3AA82AB83A2F950FCECF8EDF974FFD6
:100E0300281C74FF39FDE87001E970DC0000000064
:100E1300D2927F010207B9C082C0838A828B837416
:100E2300FF29C454F04480F9120DBF7C107D00AA41
:100E330082AB83120DE002103FEEC0E053F4FBD20D
:100E43009243FE0453F3FED28043FD017915120D44
:100E5300BF7950120DBF790F120DD2790E120DBF4B
:100E63007925120DBF791C120DBF7A157B00120C68
:100E7300D9120E9079C0120DBF7E407900120DD2A7
:100E83001EEE70F77929120DBFD0E0FE22EEC0E00E
:100E93007980120DBF7E307920120DD21EEE70F7CD
:100EA300D0E0FE22EEC0E0120F7BD0E0FE2274F70A
:100EB300120759EA7001EB60307C008A828B83E071
:100EC3006013C0E0120EF1D0E0F08A828B83A3AAF4
:100ED30082AB838006120EF17420F00CECC39410E5
:100EE30040D97A417B02120E1A7F020207B98C089D
:100EF300E5082441F582E43402F5832274F81207ED
:100F030059ECFEEDFF740812074D120BFC88828921
:100F130083EA7001EB60057901120EB1EE7001EF07
:100F23006009EEFAEFFB7902120EB1E5827002E579
:100F3300836009AA82AB837903120EB1020E157482
:100F4300F5120759EAFEEBFFE933333354F844C093
:100F5300F9120DBF75080085080AEE250AF582EF20
:100F63003400F583E0F9120DD20508E508C39408AF
:100F730040E502146D020EA7EBFE74FF29C454F082
:100F83002A4480F9120DBFEEF9120DD22279011213
:100F93001262790212126279031212627904121236
:100FA300627A327B00120CD980E37900120C82E959
:100FB30060107901120C4E7900120C82E960031261
:100FC3000F907900120C4E53F4FEC29043FE0112AF
:100FD3001044121C7043F10243F48043F44043F481
:100FE30020E59EA2E0E492E0240FFA75FB8075F8F9
:100FF3000074204AF5FC75FA53120E3CD2AF22C09E
:1010030082C0837900121044A28140227800A28119
:10101300400478007900E8240108E93400F9C3E8C2
:1010230094F4E99401A2D265D03340E2790153F3F9
:10103300FD90027CE0A2E0928143FD02D083D08246
:101043002253F3FD53FDFD438F0222C0E074F112DE
:1010530007F1C2C5E589603C7E007508017509008A
:10106300EE78081206EFAF08E5895F6020EEC33320
:10107300F8E433F912109CE07002A3E06009121047
:101083009C121101120757EFF45589F5890EEEC32F
:10109300940840C67F02020850E82451F582E934DF
:1010A30002F58322C0E074F11207F1C2EBE58A6016
:1010B3003C7E00750801750900EE78081206EFAF53
:1010C30008E58A5F6020EEC333F8E433F91210F2C7
:1010D300E07002A3E060091210F212110112075727
:1010E300EFF4558AF58A0EEEC3940840C680A5E84E
:1010F3002461F582E93402F58322F090014812114C
:101103000522E0F8A3E0F583888222C0E074F1129F
:1011130007F1C2E8E58B603C7E00750801750900A4
:10112300EE78081206EFAF08E58B5F6020EEC3335D
:10113300F8E433F912115AE07002A3E060091211C6
:101143005A121101120757EFF4558BF58B0EEEC3AC
:10115300940540C6021097E82471F582E93402F53C
:10116300832274F71207597E00A2A0E492E0FF7B6A
:10117300067A107980120C0B8B09A909EF600874A9
:101183007F59C3945450097E00E490027BF080237E
:101193007A037B00120CA80EEEC3940340CB90029B
:1011A3007BE0700D7401F0FE7A647B00120CD98031
:1011B300027E00EEF9020EEC74F7120759E9FE7B8A
:1011C300067A107980120C0B8B09A909747F59F9DF
:1011D300E4C9F8C39428E494004028C3E8943CE4A9
:1011E3009400500309801CC3E8944AE4940050031C
:1011F3000980F1C3E89454E4940050050909098077
:10120300027904EE6970B6020EECC082C083E91263
:1012130008E2010335122112251229122D12D29050
:101223008010D291800CD2948008D28174019002F4
:101233007CF002103FC082C083E91208E201035F21
:10124300124C12501254125812C290800FC2918045
:101253000BC2948007C281E490027CF002103FC06D
:1012630082C083E91208E20103951276127D12828D
:10127300128912639001E590801863900280F763EE
:101283009010E590800C638002E58090027CE0641E
:1012930001F002103F74F112075974FB1207027434
:1012A3000112074DEAF0A3EBF0A3ECF0A3EDF07A03
:1012B3007D7B02740112074DC082C0839005D878EC
:1012C30008120609D083D082780812042D502274A4
:1012D30001851082851183F012074D7808120609E3
:1012E30078081205BA740112074D7808120618809F
:1012F30008E4851082851183F0740112074D780C80
:101303001206099005DC7808120609780C79081290
:10131300057CE50824308A828B83F0A3AA82AB8301
:10132300740112074D780C1206099005DC78081237
:101333000609780C790812057C740112074D780CA4
:10134300120618740112074DC082C0839005D87825
:1013530008120609D083D0827808120418709A857F
:101363001082851183E0600B742D8A828B83F0A336
:101373000AAB83E41213AE787D790280198A828BDB
:1013830083E0FC88828983E01213AEEC8882898330
:10139300F0A3A882A983C3E89AE99B40E07A7D7B06
:1013A3000274051207187F080207B98A828B83F03B
:1013B300EA24FF1AEB34FFFB2274F5120759EAFE05
:1013C300EBFF750A00750B018056E50B6052121492
:1013D30072E0FAA3E0FB7902120EB17B3C7A00794A
:1013E30003120EA77B3E7A0F7903120EA7750B002B
:1013F3007508007509001211BBE9640460067508DD
:1014030000750900E5082401F508E5093400F5092C
:10141300C3E50894F4E5099401A2D265D03340D61C
:10142300121A4A603E1211BBE96403701874012555
:101433000AC0E08E828F83A3A3E0F5F0D0E084E5B9
:10144300F0F50A80891211BBE9640260030213CD2F
:10145300E50A700A8E828F83A3A3E01480E3150A42
:101463000213D1121472A3A3E0F97F040207B9E5B2
:101473000A75F003A4F8A9F08E828F83E028FAA3FB
:10148300E0398A82F5832274F512075974D412075E
:10149300028A088B09851082851183AC82AD83751E
:1014A3008304758248740E120634740E12074DAC11
:1014B30082AD83758304758256741E12063490625E
:1014C3004AE0120918000A011A1502EA141120153C
:1014D300810E1584FC1485F01489F614911415A556
:1014E3000215B5081526157C117D04803A7C167DFE
:1014F3000480347C1B7D04802E7C207D0480287C2A
:10150300257D0480227C2A7D04801C7C2F7D048021
:10151300167C347D0480107C397D04800A7C3E7DFA
:101523000480047C437D04750A04750B00780A1259
:1015330008A4740712074DAA82AB83121D9E74027E
:10154300120718906249E0C4540F2430C0E0740BB2
:1015530012074DD0E0F0AA08AB09121D828A0A8B4C
:101563000BAE0AAF0B740E12074DAA82AB83121D8A
:1015730082EA2EF8EB3FF9C3E89411E99400500B8B
:10158300AC08AD09AA82AB83121D4C7A4E7B057958
:1015930000120F427A567B057901120F427A5E7B65
:1015A300057902120F427A667B057903120F428591
:1015B3001082851183AA82AB837901120EB1740E56
:1015C30012074DAA82AB837902120EB17A747B049F
:1015D3007903120EB17B007A007901120F787B0137
:1015E3007A007902120F787B027A017901120F785F
:1015F3007B037A017902120F78742C1207180214F4
:101603006D74F2120759890E8A0C8B0DECFEEDFFF7
:10161300740E12074D7808120609AA08AB09AC0A22
:10162300AD0B1212988A088B09A808A9097A00E55C
:101633000C7002E50D6020850C82850D83E0601738
:10164300C0E01216ADD0E0F0850C82850D83A38532
:10165300820C85830D803E88828983E06011C0E01F
:101663001216ADD0E01216BBA3A882A9838026EE82
:101673007001EF601A8E828F83E06013C0E0121650
:10168300ADD0E0F08E828F83A3AE82AF838006124B
:1016930016AD7420F00AEAC3941040937A897B0252
:1016A300A90E120EB17F070207B98A08E50824893B
:1016B300F582E43402F58322F08882898322C08292
:1016C300C08374019002B3F002103FC082C08390C4
:1016D30002B4E06401F0E06007D2B943E40280029F
:1016E300C2B902103F74F112075974AC1207029089
:1016F3000101C082741412074DAC82AD837583015E
:10170300D0827440120634851082851183F09005CF
:10171300D87808120609740412074D7808120618BF
:101723009005D87808120609741012074D7808122C
:1017330006189005D87808120609740C12074D781C
:1017430008120618740212074DE4F0A3F074011294
:10175300074DE4F090029974EFF0A374BE121C7D60
:101763007003120F907401900143F075E1EC75E181
:10177300E3120E9075089275090478081208A47C88
:10178300897D047A7E7B04120EFF7402120718020D
:1017930018BC740812074DC082C0839005E0780816
:1017A300120609D083D08278081205CB740412077D
:1017B3004D78081206189005D87808120609741097
:1017C30012074D78081206189005D87808120609F2
:1017D300740C12074D78081206189005E078081269
:1017E3000609741012074D78081205DE121A4A70A2
:1017F3002C740112074D7401F09005E0780812066D
:1018030009741012074D78081206189005D8780845
:10181300120609740C12074D7808120618740C127C
:10182300074D78081206099005E4780C120609782A
:1018330008790C120462740C12074DC082C08374C1
:101843001012074D780C120609D083D082780C123F
:1018530005CB7808790C1204E278081208A07C9E64
:101863007D047A987B047901121C6A1207187402AA
:1018730012074D120BFC7A207B0012068E8808E9B2
:10188300F5093395E0F50AF50B78081208A07CAC4E
:101893007D047AA57B047902121C6A12071874105E
:1018A30012074D1208B57C007D007AB07B04121C30
:1018B300681207187903121238900540E060FAC2E3
:1018C300AF90053BE0FAC3946750048A0880037520
:1018D300086775090078081208A490053CE0FCA38A
:1018E300E0FD7AA97B02121D047402120718900509
:1018F3003FE0F83395E0F974B728FE74FF39FFE44D
:10190300900540F0D2AF90053BE0FAC394675003D3
:10191300EA60A6790312120D9002A978081206094B
:10192300740812074D7808120618740112074DE067
:10193300601B740812074D78081206097404120715
:101943004D7808120618740112074DE4F0851082D1
:10195300851183E0C333F8E433F9741412074DE5BA
:101963008228F8E58339F988828983E0FAA3E0FBCA
:10197300740212074DC3E09AF0A3E09B1216BBEE6C
:10198300F0A3EF1216BB120BFC740212074DE028F2
:10199300F0A3E039F0851082851183E004F0642020
:1019A3007002E4F0740412074DC082C083740812FD
:1019B300074D7808120609D083D0827808120418DC
:1019C30070159005E07808120609740412074D7823
:1019D300081205DE0217DD740412074DC082C083AE
:1019E300740812074D7808120609D083D08278084C
:1019F3001204524003021795740C12074DC082C0A3
:101A030083740812074D7808120609D083D08278B0
:101A1300081205CB740412074D78081205F1740CF3
:101A230012074D7808120618740812074DC082C0B9
:101A3300839005E07808120609D083D082780812D3
:101A430005CB74040217D5121002E964012274F164
:101A530012075974FC1207029005D8780812060978
:101A63009002997420F0A37425121C7D7003120F49
:101A7300907A247B057901120EB17A4B7B05121300
:101A8300BCE91208E20002A11A921A961A9A1A7A6B
:101A9300B580067AD580027AF5EA906190F07A17DC
:101AA3007B057901120EB17AC67B051213BCE9F5E9
:101AB3000C750D007402780C1206EFE50C24B6F5D4
:101AC30082E50D3405F583780C12060985108285AD
:101AD3001183780C120618E4900143F075E1EF7559
:101AE300E1EC7A097B057901120EB17AD57B0512F7
:101AF30013BCE978007980FA7B00120696880C897A
:101B03000D43E40CE5E4E9942040097EFF7FFF12D6
:101B13000F90800B7403780C1206EFAE0CAF0DEF31
:101B2300F5DBEEF5DA75E54453AFFEC2B9A2AFE4D7
:101B330092E0F8C2AF90023F74C1F0A37416F0E8CC
:101B4300A2E092AF121C709005D8780C120609908F
:101B5300029F780C1206187A00EA24A3F582E43473
:101B630002F583EAF00AEAC3940640ED120E90757B
:101B73000CC7750D04780C1208A47CB97D047A7E19
:101B83007B0480339005D878081206099005D8782D
:101B93000C12060990029F780C120618120E907907
:101BA30003121238750CC7750D04780C1208A47C47
:101BB300B97D047AE57B04120EFF74021207181232
:101BC3001165E960FA1216CE120E90750C00750DB0
:101BD30000780C1208A47CD27D047A7E7B04120E5A
:101BE300FF740212071880047A00EAF09002B4E04E
:101BF3006092121165E960031216CE851082851179
:101C030083780C120609780C7908120442504C9020
:101C130002B3E0640170D5790A7C9F7D027AEF7B81
:101C2300BE120AEA9005E0780C12060990029F782A
:101C33000C1205DE9005E078081205CB780812082F
:101C4300A07C007D007ADE7B04121C68120718E476
:101C53009002B3F0790312126280919002B4E070A3
:101C6300877A018085790312160474042253F5FEE2
:101C730053FFFE43F70143F34022F07A997B0212AC
:101C83000A5FE9640122E49002B3F09002B4F09099
:101C9300029B7407F0A37420F0E490029EF0120FED
:101CA300AD120D06E964017003120F90790112124F
:101CB3000D7A7E7B0412148A121A4A70FB7A5E7BB9
:101CC30001120CD9120E907AEE7B047901120EB137
:101CD3007A9E7B051213BCE990029DF07AF87B048F
:101CE3007901120EB17AA77B051213BCE9FA7005CC
:101CF300121A51800874016A70031216E8120F90C9
:101D03002274F7120759740912074DE0FEA3E0FF8E
:101D1300EAF8EBF980188C828D83E088828983F05E
:101D2300A3A882A9838C828D83A3AC82AD838E0802
:101D33008F0974FF25081E74FF3509FFE50870023B
:101D4300E50970D27F020207B974F8120759EAF85D
:101D5300EBF98005A3AA82AB838A828B83E070F4BC
:101D63008C828D83E0A3AC82AD838A828B83F0A3C4
:101D7300AA82AB8370EAE8FAE9FB7F010207B9C0E4
:101D830082C0838A828B838001A3E070FCE582C3D7
:101D93009AFAE5839BFBD083D0822274F71207590A
:101DA300740912074DE0FEA3E0FFEAF8EBF98E0891
:101DB3008F0974FF25081E74FF3509FFE5087002BB
:101DC300E50960358C828D83E0A3AC82AD838A8282
:101DD3008B83F0A3AA82AB8370D4EEFCEFFD74FF78
:101DE3002C1E74FF3DFFEC7001ED600DE48A828BC5
:101DF30083F0A3AA82AB8380E1E8FAE9FB7F0202C6
:021E030007B91D
:04000005000000D324
:00000001FF
